{
	"contracts/hellios.sol": {
		"MinhaBlockchain": {
			"abi": [
				{
					"inputs": [
						{
							"internalType": "string",
							"name": "_conteudo",
							"type": "string"
						}
					],
					"name": "adicionarDado",
					"outputs": [],
					"stateMutability": "nonpayable",
					"type": "function"
				},
				{
					"inputs": [
						{
							"internalType": "uint256",
							"name": "",
							"type": "uint256"
						}
					],
					"name": "meusDados",
					"outputs": [
						{
							"internalType": "uint256",
							"name": "id",
							"type": "uint256"
						},
						{
							"internalType": "string",
							"name": "conteudo",
							"type": "string"
						}
					],
					"stateMutability": "view",
					"type": "function"
				},
				{
					"inputs": [],
					"name": "obterUltimoId",
					"outputs": [
						{
							"internalType": "uint256",
							"name": "",
							"type": "uint256"
						}
					],
					"stateMutability": "view",
					"type": "function"
				}
			],
			"devdoc": {
				"kind": "dev",
				"methods": {},
				"version": 1
			},
			"evm": {
				"assembly": "    /* \"contracts/hellios.sol\":28:593  contract MinhaBlockchain {... */\n  mstore(0x40, 0x80)\n  callvalue\n  dup1\n  iszero\n  tag_1\n  jumpi\n  0x00\n  dup1\n  revert\ntag_1:\n  pop\n  dataSize(sub_0)\n  dup1\n  dataOffset(sub_0)\n  0x00\n  codecopy\n  0x00\n  return\nstop\n\nsub_0: assembly {\n        /* \"contracts/hellios.sol\":28:593  contract MinhaBlockchain {... */\n      mstore(0x40, 0x80)\n      callvalue\n      dup1\n      iszero\n      tag_1\n      jumpi\n      0x00\n      dup1\n      revert\n    tag_1:\n      pop\n      jumpi(tag_2, lt(calldatasize, 0x04))\n      shr(0xe0, calldataload(0x00))\n      dup1\n      0x369a5e\n      eq\n      tag_3\n      jumpi\n      dup1\n      0x5cf5ab56\n      eq\n      tag_4\n      jumpi\n      dup1\n      0x933f2950\n      eq\n      tag_5\n      jumpi\n    tag_2:\n      0x00\n      dup1\n      revert\n        /* \"contracts/hellios.sol\":254:474  function adicionarDado(string memory _conteudo) public {... */\n    tag_3:\n      tag_6\n      0x04\n      dup1\n      calldatasize\n      sub\n      dup2\n      add\n      swap1\n      tag_7\n      swap2\n      swap1\n      tag_8\n      jump\t// in\n    tag_7:\n      tag_9\n      jump\t// in\n    tag_6:\n      stop\n        /* \"contracts/hellios.sol\":221:244  Dado[] public meusDados */\n    tag_4:\n      tag_10\n      0x04\n      dup1\n      calldatasize\n      sub\n      dup2\n      add\n      swap1\n      tag_11\n      swap2\n      swap1\n      tag_12\n      jump\t// in\n    tag_11:\n      tag_13\n      jump\t// in\n    tag_10:\n      mload(0x40)\n      tag_14\n      swap3\n      swap2\n      swap1\n      tag_15\n      jump\t// in\n    tag_14:\n      mload(0x40)\n      dup1\n      swap2\n      sub\n      swap1\n      return\n        /* \"contracts/hellios.sol\":482:590  function obterUltimoId() public view returns (uint){... */\n    tag_5:\n      tag_16\n      tag_17\n      jump\t// in\n    tag_16:\n      mload(0x40)\n      tag_18\n      swap2\n      swap1\n      tag_19\n      jump\t// in\n    tag_18:\n      mload(0x40)\n      dup1\n      swap2\n      sub\n      swap1\n      return\n        /* \"contracts/hellios.sol\":254:474  function adicionarDado(string memory _conteudo) public {... */\n    tag_9:\n        /* \"contracts/hellios.sol\":390:397  uint id */\n      0x00\n        /* \"contracts/hellios.sol\":419:420  1 */\n      0x01\n        /* \"contracts/hellios.sol\":400:409  meusDados */\n      0x00\n        /* \"contracts/hellios.sol\":400:416  meusDados.length */\n      dup1\n      sload\n      swap1\n      pop\n        /* \"contracts/hellios.sol\":400:420  meusDados.length + 1 */\n      tag_21\n      swap2\n      swap1\n      tag_22\n      jump\t// in\n    tag_21:\n        /* \"contracts/hellios.sol\":390:420  uint id = meusDados.length + 1 */\n      swap1\n      pop\n        /* \"contracts/hellios.sol\":431:440  meusDados */\n      0x00\n        /* \"contracts/hellios.sol\":446:465  Dado(id, _conteudo) */\n      mload(0x40)\n      dup1\n      0x40\n      add\n      0x40\n      mstore\n      dup1\n        /* \"contracts/hellios.sol\":451:453  id */\n      dup4\n        /* \"contracts/hellios.sol\":446:465  Dado(id, _conteudo) */\n      dup2\n      mstore\n      0x20\n      add\n        /* \"contracts/hellios.sol\":455:464  _conteudo */\n      dup5\n        /* \"contracts/hellios.sol\":446:465  Dado(id, _conteudo) */\n      dup2\n      mstore\n      pop\n        /* \"contracts/hellios.sol\":431:466  meusDados.push(Dado(id, _conteudo)) */\n      swap1\n      dup1\n      0x01\n      dup2\n      sload\n      add\n      dup1\n      dup3\n      sstore\n      dup1\n      swap2\n      pop\n      pop\n      0x01\n      swap1\n      sub\n      swap1\n      0x00\n      mstore\n      keccak256(0x00, 0x20)\n      swap1\n      0x02\n      mul\n      add\n      0x00\n      swap1\n      swap2\n      swap1\n      swap2\n      swap1\n      swap2\n      pop\n      0x00\n      dup3\n      add\n      mload\n      dup2\n      0x00\n      add\n      sstore\n      0x20\n      dup3\n      add\n      mload\n      dup2\n      0x01\n      add\n      swap1\n      dup2\n      tag_24\n      swap2\n      swap1\n      tag_25\n      jump\t// in\n    tag_24:\n      pop\n      pop\n      pop\n        /* \"contracts/hellios.sol\":309:474  {... */\n      pop\n        /* \"contracts/hellios.sol\":254:474  function adicionarDado(string memory _conteudo) public {... */\n      pop\n      jump\t// out\n        /* \"contracts/hellios.sol\":221:244  Dado[] public meusDados */\n    tag_13:\n      0x00\n      dup2\n      dup2\n      sload\n      dup2\n      lt\n      tag_26\n      jumpi\n      0x00\n      dup1\n      revert\n    tag_26:\n      swap1\n      0x00\n      mstore\n      keccak256(0x00, 0x20)\n      swap1\n      0x02\n      mul\n      add\n      0x00\n      swap2\n      pop\n      swap1\n      pop\n      dup1\n      0x00\n      add\n      sload\n      swap1\n      dup1\n      0x01\n      add\n      dup1\n      sload\n      tag_28\n      swap1\n      tag_29\n      jump\t// in\n    tag_28:\n      dup1\n      0x1f\n      add\n      0x20\n      dup1\n      swap2\n      div\n      mul\n      0x20\n      add\n      mload(0x40)\n      swap1\n      dup2\n      add\n      0x40\n      mstore\n      dup1\n      swap3\n      swap2\n      swap1\n      dup2\n      dup2\n      mstore\n      0x20\n      add\n      dup3\n      dup1\n      sload\n      tag_30\n      swap1\n      tag_29\n      jump\t// in\n    tag_30:\n      dup1\n      iszero\n      tag_31\n      jumpi\n      dup1\n      0x1f\n      lt\n      tag_32\n      jumpi\n      0x0100\n      dup1\n      dup4\n      sload\n      div\n      mul\n      dup4\n      mstore\n      swap2\n      0x20\n      add\n      swap2\n      jump(tag_31)\n    tag_32:\n      dup3\n      add\n      swap2\n      swap1\n      0x00\n      mstore\n      keccak256(0x00, 0x20)\n      swap1\n    tag_33:\n      dup2\n      sload\n      dup2\n      mstore\n      swap1\n      0x01\n      add\n      swap1\n      0x20\n      add\n      dup1\n      dup4\n      gt\n      tag_33\n      jumpi\n      dup3\n      swap1\n      sub\n      0x1f\n      and\n      dup3\n      add\n      swap2\n    tag_31:\n      pop\n      pop\n      pop\n      pop\n      pop\n      swap1\n      pop\n      dup3\n      jump\t// out\n        /* \"contracts/hellios.sol\":482:590  function obterUltimoId() public view returns (uint){... */\n    tag_17:\n        /* \"contracts/hellios.sol\":528:532  uint */\n      0x00\n        /* \"contracts/hellios.sol\":550:559  meusDados */\n      dup1\n        /* \"contracts/hellios.sol\":577:578  1 */\n      0x01\n        /* \"contracts/hellios.sol\":560:569  meusDados */\n      0x00\n        /* \"contracts/hellios.sol\":560:576  meusDados.length */\n      dup1\n      sload\n      swap1\n      pop\n        /* \"contracts/hellios.sol\":560:578  meusDados.length-1 */\n      tag_35\n      swap2\n      swap1\n      tag_36\n      jump\t// in\n    tag_35:\n        /* \"contracts/hellios.sol\":550:579  meusDados[meusDados.length-1] */\n      dup2\n      sload\n      dup2\n      lt\n      tag_37\n      jumpi\n      tag_38\n      tag_39\n      jump\t// in\n    tag_38:\n    tag_37:\n      swap1\n      0x00\n      mstore\n      keccak256(0x00, 0x20)\n      swap1\n      0x02\n      mul\n      add\n        /* \"contracts/hellios.sol\":550:582  meusDados[meusDados.length-1].id */\n      0x00\n      add\n      sload\n        /* \"contracts/hellios.sol\":543:582  return meusDados[meusDados.length-1].id */\n      swap1\n      pop\n        /* \"contracts/hellios.sol\":482:590  function obterUltimoId() public view returns (uint){... */\n      swap1\n      jump\t// out\n        /* \"#utility.yul\":7:82   */\n    tag_41:\n        /* \"#utility.yul\":40:46   */\n      0x00\n        /* \"#utility.yul\":73:75   */\n      0x40\n        /* \"#utility.yul\":67:76   */\n      mload\n        /* \"#utility.yul\":57:76   */\n      swap1\n      pop\n        /* \"#utility.yul\":7:82   */\n      swap1\n      jump\t// out\n        /* \"#utility.yul\":88:205   */\n    tag_42:\n        /* \"#utility.yul\":197:198   */\n      0x00\n        /* \"#utility.yul\":194:195   */\n      dup1\n        /* \"#utility.yul\":187:199   */\n      revert\n        /* \"#utility.yul\":211:328   */\n    tag_43:\n        /* \"#utility.yul\":320:321   */\n      0x00\n        /* \"#utility.yul\":317:318   */\n      dup1\n        /* \"#utility.yul\":310:322   */\n      revert\n        /* \"#utility.yul\":334:451   */\n    tag_44:\n        /* \"#utility.yul\":443:444   */\n      0x00\n        /* \"#utility.yul\":440:441   */\n      dup1\n        /* \"#utility.yul\":433:445   */\n      revert\n        /* \"#utility.yul\":457:574   */\n    tag_45:\n        /* \"#utility.yul\":566:567   */\n      0x00\n        /* \"#utility.yul\":563:564   */\n      dup1\n        /* \"#utility.yul\":556:568   */\n      revert\n        /* \"#utility.yul\":580:682   */\n    tag_46:\n        /* \"#utility.yul\":621:627   */\n      0x00\n        /* \"#utility.yul\":672:674   */\n      0x1f\n        /* \"#utility.yul\":668:675   */\n      not\n        /* \"#utility.yul\":663:665   */\n      0x1f\n        /* \"#utility.yul\":656:661   */\n      dup4\n        /* \"#utility.yul\":652:666   */\n      add\n        /* \"#utility.yul\":648:676   */\n      and\n        /* \"#utility.yul\":638:676   */\n      swap1\n      pop\n        /* \"#utility.yul\":580:682   */\n      swap2\n      swap1\n      pop\n      jump\t// out\n        /* \"#utility.yul\":688:868   */\n    tag_47:\n        /* \"#utility.yul\":736:813   */\n      0x4e487b7100000000000000000000000000000000000000000000000000000000\n        /* \"#utility.yul\":733:734   */\n      0x00\n        /* \"#utility.yul\":726:814   */\n      mstore\n        /* \"#utility.yul\":833:837   */\n      0x41\n        /* \"#utility.yul\":830:831   */\n      0x04\n        /* \"#utility.yul\":823:838   */\n      mstore\n        /* \"#utility.yul\":857:861   */\n      0x24\n        /* \"#utility.yul\":854:855   */\n      0x00\n        /* \"#utility.yul\":847:862   */\n      revert\n        /* \"#utility.yul\":874:1155   */\n    tag_48:\n        /* \"#utility.yul\":957:984   */\n      tag_88\n        /* \"#utility.yul\":979:983   */\n      dup3\n        /* \"#utility.yul\":957:984   */\n      tag_46\n      jump\t// in\n    tag_88:\n        /* \"#utility.yul\":949:955   */\n      dup2\n        /* \"#utility.yul\":945:985   */\n      add\n        /* \"#utility.yul\":1087:1093   */\n      dup2\n        /* \"#utility.yul\":1075:1085   */\n      dup2\n        /* \"#utility.yul\":1072:1094   */\n      lt\n        /* \"#utility.yul\":1051:1069   */\n      0xffffffffffffffff\n        /* \"#utility.yul\":1039:1049   */\n      dup3\n        /* \"#utility.yul\":1036:1070   */\n      gt\n        /* \"#utility.yul\":1033:1095   */\n      or\n        /* \"#utility.yul\":1030:1118   */\n      iszero\n      tag_89\n      jumpi\n        /* \"#utility.yul\":1098:1116   */\n      tag_90\n      tag_47\n      jump\t// in\n    tag_90:\n        /* \"#utility.yul\":1030:1118   */\n    tag_89:\n        /* \"#utility.yul\":1138:1148   */\n      dup1\n        /* \"#utility.yul\":1134:1136   */\n      0x40\n        /* \"#utility.yul\":1127:1149   */\n      mstore\n        /* \"#utility.yul\":917:1155   */\n      pop\n        /* \"#utility.yul\":874:1155   */\n      pop\n      pop\n      jump\t// out\n        /* \"#utility.yul\":1161:1290   */\n    tag_49:\n        /* \"#utility.yul\":1195:1201   */\n      0x00\n        /* \"#utility.yul\":1222:1242   */\n      tag_92\n      tag_41\n      jump\t// in\n    tag_92:\n        /* \"#utility.yul\":1212:1242   */\n      swap1\n      pop\n        /* \"#utility.yul\":1251:1284   */\n      tag_93\n        /* \"#utility.yul\":1279:1283   */\n      dup3\n        /* \"#utility.yul\":1271:1277   */\n      dup3\n        /* \"#utility.yul\":1251:1284   */\n      tag_48\n      jump\t// in\n    tag_93:\n        /* \"#utility.yul\":1161:1290   */\n      swap2\n      swap1\n      pop\n      jump\t// out\n        /* \"#utility.yul\":1296:1604   */\n    tag_50:\n        /* \"#utility.yul\":1358:1362   */\n      0x00\n        /* \"#utility.yul\":1448:1466   */\n      0xffffffffffffffff\n        /* \"#utility.yul\":1440:1446   */\n      dup3\n        /* \"#utility.yul\":1437:1467   */\n      gt\n        /* \"#utility.yul\":1434:1490   */\n      iszero\n      tag_95\n      jumpi\n        /* \"#utility.yul\":1470:1488   */\n      tag_96\n      tag_47\n      jump\t// in\n    tag_96:\n        /* \"#utility.yul\":1434:1490   */\n    tag_95:\n        /* \"#utility.yul\":1508:1537   */\n      tag_97\n        /* \"#utility.yul\":1530:1536   */\n      dup3\n        /* \"#utility.yul\":1508:1537   */\n      tag_46\n      jump\t// in\n    tag_97:\n        /* \"#utility.yul\":1500:1537   */\n      swap1\n      pop\n        /* \"#utility.yul\":1592:1596   */\n      0x20\n        /* \"#utility.yul\":1586:1590   */\n      dup2\n        /* \"#utility.yul\":1582:1597   */\n      add\n        /* \"#utility.yul\":1574:1597   */\n      swap1\n      pop\n        /* \"#utility.yul\":1296:1604   */\n      swap2\n      swap1\n      pop\n      jump\t// out\n        /* \"#utility.yul\":1610:1758   */\n    tag_51:\n        /* \"#utility.yul\":1708:1714   */\n      dup3\n        /* \"#utility.yul\":1703:1706   */\n      dup2\n        /* \"#utility.yul\":1698:1701   */\n      dup4\n        /* \"#utility.yul\":1685:1715   */\n      calldatacopy\n        /* \"#utility.yul\":1749:1750   */\n      0x00\n        /* \"#utility.yul\":1740:1746   */\n      dup4\n        /* \"#utility.yul\":1735:1738   */\n      dup4\n        /* \"#utility.yul\":1731:1747   */\n      add\n        /* \"#utility.yul\":1724:1751   */\n      mstore\n        /* \"#utility.yul\":1610:1758   */\n      pop\n      pop\n      pop\n      jump\t// out\n        /* \"#utility.yul\":1764:2189   */\n    tag_52:\n        /* \"#utility.yul\":1842:1847   */\n      0x00\n        /* \"#utility.yul\":1867:1933   */\n      tag_100\n        /* \"#utility.yul\":1883:1932   */\n      tag_101\n        /* \"#utility.yul\":1925:1931   */\n      dup5\n        /* \"#utility.yul\":1883:1932   */\n      tag_50\n      jump\t// in\n    tag_101:\n        /* \"#utility.yul\":1867:1933   */\n      tag_49\n      jump\t// in\n    tag_100:\n        /* \"#utility.yul\":1858:1933   */\n      swap1\n      pop\n        /* \"#utility.yul\":1956:1962   */\n      dup3\n        /* \"#utility.yul\":1949:1954   */\n      dup2\n        /* \"#utility.yul\":1942:1963   */\n      mstore\n        /* \"#utility.yul\":1994:1998   */\n      0x20\n        /* \"#utility.yul\":1987:1992   */\n      dup2\n        /* \"#utility.yul\":1983:1999   */\n      add\n        /* \"#utility.yul\":2032:2035   */\n      dup5\n        /* \"#utility.yul\":2023:2029   */\n      dup5\n        /* \"#utility.yul\":2018:2021   */\n      dup5\n        /* \"#utility.yul\":2014:2030   */\n      add\n        /* \"#utility.yul\":2011:2036   */\n      gt\n        /* \"#utility.yul\":2008:2120   */\n      iszero\n      tag_102\n      jumpi\n        /* \"#utility.yul\":2039:2118   */\n      tag_103\n      tag_45\n      jump\t// in\n    tag_103:\n        /* \"#utility.yul\":2008:2120   */\n    tag_102:\n        /* \"#utility.yul\":2129:2183   */\n      tag_104\n        /* \"#utility.yul\":2176:2182   */\n      dup5\n        /* \"#utility.yul\":2171:2174   */\n      dup3\n        /* \"#utility.yul\":2166:2169   */\n      dup6\n        /* \"#utility.yul\":2129:2183   */\n      tag_51\n      jump\t// in\n    tag_104:\n        /* \"#utility.yul\":1848:2189   */\n      pop\n        /* \"#utility.yul\":1764:2189   */\n      swap4\n      swap3\n      pop\n      pop\n      pop\n      jump\t// out\n        /* \"#utility.yul\":2209:2549   */\n    tag_53:\n        /* \"#utility.yul\":2265:2270   */\n      0x00\n        /* \"#utility.yul\":2314:2317   */\n      dup3\n        /* \"#utility.yul\":2307:2311   */\n      0x1f\n        /* \"#utility.yul\":2299:2305   */\n      dup4\n        /* \"#utility.yul\":2295:2312   */\n      add\n        /* \"#utility.yul\":2291:2318   */\n      slt\n        /* \"#utility.yul\":2281:2403   */\n      tag_106\n      jumpi\n        /* \"#utility.yul\":2322:2401   */\n      tag_107\n      tag_44\n      jump\t// in\n    tag_107:\n        /* \"#utility.yul\":2281:2403   */\n    tag_106:\n        /* \"#utility.yul\":2439:2445   */\n      dup2\n        /* \"#utility.yul\":2426:2446   */\n      calldataload\n        /* \"#utility.yul\":2464:2543   */\n      tag_108\n        /* \"#utility.yul\":2539:2542   */\n      dup5\n        /* \"#utility.yul\":2531:2537   */\n      dup3\n        /* \"#utility.yul\":2524:2528   */\n      0x20\n        /* \"#utility.yul\":2516:2522   */\n      dup7\n        /* \"#utility.yul\":2512:2529   */\n      add\n        /* \"#utility.yul\":2464:2543   */\n      tag_52\n      jump\t// in\n    tag_108:\n        /* \"#utility.yul\":2455:2543   */\n      swap2\n      pop\n        /* \"#utility.yul\":2271:2549   */\n      pop\n        /* \"#utility.yul\":2209:2549   */\n      swap3\n      swap2\n      pop\n      pop\n      jump\t// out\n        /* \"#utility.yul\":2555:3064   */\n    tag_8:\n        /* \"#utility.yul\":2624:2630   */\n      0x00\n        /* \"#utility.yul\":2673:2675   */\n      0x20\n        /* \"#utility.yul\":2661:2670   */\n      dup3\n        /* \"#utility.yul\":2652:2659   */\n      dup5\n        /* \"#utility.yul\":2648:2671   */\n      sub\n        /* \"#utility.yul\":2644:2676   */\n      slt\n        /* \"#utility.yul\":2641:2760   */\n      iszero\n      tag_110\n      jumpi\n        /* \"#utility.yul\":2679:2758   */\n      tag_111\n      tag_42\n      jump\t// in\n    tag_111:\n        /* \"#utility.yul\":2641:2760   */\n    tag_110:\n        /* \"#utility.yul\":2827:2828   */\n      0x00\n        /* \"#utility.yul\":2816:2825   */\n      dup3\n        /* \"#utility.yul\":2812:2829   */\n      add\n        /* \"#utility.yul\":2799:2830   */\n      calldataload\n        /* \"#utility.yul\":2857:2875   */\n      0xffffffffffffffff\n        /* \"#utility.yul\":2849:2855   */\n      dup2\n        /* \"#utility.yul\":2846:2876   */\n      gt\n        /* \"#utility.yul\":2843:2960   */\n      iszero\n      tag_112\n      jumpi\n        /* \"#utility.yul\":2879:2958   */\n      tag_113\n      tag_43\n      jump\t// in\n    tag_113:\n        /* \"#utility.yul\":2843:2960   */\n    tag_112:\n        /* \"#utility.yul\":2984:3047   */\n      tag_114\n        /* \"#utility.yul\":3039:3046   */\n      dup5\n        /* \"#utility.yul\":3030:3036   */\n      dup3\n        /* \"#utility.yul\":3019:3028   */\n      dup6\n        /* \"#utility.yul\":3015:3037   */\n      add\n        /* \"#utility.yul\":2984:3047   */\n      tag_53\n      jump\t// in\n    tag_114:\n        /* \"#utility.yul\":2974:3047   */\n      swap2\n      pop\n        /* \"#utility.yul\":2770:3057   */\n      pop\n        /* \"#utility.yul\":2555:3064   */\n      swap3\n      swap2\n      pop\n      pop\n      jump\t// out\n        /* \"#utility.yul\":3070:3147   */\n    tag_54:\n        /* \"#utility.yul\":3107:3114   */\n      0x00\n        /* \"#utility.yul\":3136:3141   */\n      dup2\n        /* \"#utility.yul\":3125:3141   */\n      swap1\n      pop\n        /* \"#utility.yul\":3070:3147   */\n      swap2\n      swap1\n      pop\n      jump\t// out\n        /* \"#utility.yul\":3153:3275   */\n    tag_55:\n        /* \"#utility.yul\":3226:3250   */\n      tag_117\n        /* \"#utility.yul\":3244:3249   */\n      dup2\n        /* \"#utility.yul\":3226:3250   */\n      tag_54\n      jump\t// in\n    tag_117:\n        /* \"#utility.yul\":3219:3224   */\n      dup2\n        /* \"#utility.yul\":3216:3251   */\n      eq\n        /* \"#utility.yul\":3206:3269   */\n      tag_118\n      jumpi\n        /* \"#utility.yul\":3265:3266   */\n      0x00\n        /* \"#utility.yul\":3262:3263   */\n      dup1\n        /* \"#utility.yul\":3255:3267   */\n      revert\n        /* \"#utility.yul\":3206:3269   */\n    tag_118:\n        /* \"#utility.yul\":3153:3275   */\n      pop\n      jump\t// out\n        /* \"#utility.yul\":3281:3420   */\n    tag_56:\n        /* \"#utility.yul\":3327:3332   */\n      0x00\n        /* \"#utility.yul\":3365:3371   */\n      dup2\n        /* \"#utility.yul\":3352:3372   */\n      calldataload\n        /* \"#utility.yul\":3343:3372   */\n      swap1\n      pop\n        /* \"#utility.yul\":3381:3414   */\n      tag_120\n        /* \"#utility.yul\":3408:3413   */\n      dup2\n        /* \"#utility.yul\":3381:3414   */\n      tag_55\n      jump\t// in\n    tag_120:\n        /* \"#utility.yul\":3281:3420   */\n      swap3\n      swap2\n      pop\n      pop\n      jump\t// out\n        /* \"#utility.yul\":3426:3755   */\n    tag_12:\n        /* \"#utility.yul\":3485:3491   */\n      0x00\n        /* \"#utility.yul\":3534:3536   */\n      0x20\n        /* \"#utility.yul\":3522:3531   */\n      dup3\n        /* \"#utility.yul\":3513:3520   */\n      dup5\n        /* \"#utility.yul\":3509:3532   */\n      sub\n        /* \"#utility.yul\":3505:3537   */\n      slt\n        /* \"#utility.yul\":3502:3621   */\n      iszero\n      tag_122\n      jumpi\n        /* \"#utility.yul\":3540:3619   */\n      tag_123\n      tag_42\n      jump\t// in\n    tag_123:\n        /* \"#utility.yul\":3502:3621   */\n    tag_122:\n        /* \"#utility.yul\":3660:3661   */\n      0x00\n        /* \"#utility.yul\":3685:3738   */\n      tag_124\n        /* \"#utility.yul\":3730:3737   */\n      dup5\n        /* \"#utility.yul\":3721:3727   */\n      dup3\n        /* \"#utility.yul\":3710:3719   */\n      dup6\n        /* \"#utility.yul\":3706:3728   */\n      add\n        /* \"#utility.yul\":3685:3738   */\n      tag_56\n      jump\t// in\n    tag_124:\n        /* \"#utility.yul\":3675:3738   */\n      swap2\n      pop\n        /* \"#utility.yul\":3631:3748   */\n      pop\n        /* \"#utility.yul\":3426:3755   */\n      swap3\n      swap2\n      pop\n      pop\n      jump\t// out\n        /* \"#utility.yul\":3761:3879   */\n    tag_57:\n        /* \"#utility.yul\":3848:3872   */\n      tag_126\n        /* \"#utility.yul\":3866:3871   */\n      dup2\n        /* \"#utility.yul\":3848:3872   */\n      tag_54\n      jump\t// in\n    tag_126:\n        /* \"#utility.yul\":3843:3846   */\n      dup3\n        /* \"#utility.yul\":3836:3873   */\n      mstore\n        /* \"#utility.yul\":3761:3879   */\n      pop\n      pop\n      jump\t// out\n        /* \"#utility.yul\":3885:3984   */\n    tag_58:\n        /* \"#utility.yul\":3937:3943   */\n      0x00\n        /* \"#utility.yul\":3971:3976   */\n      dup2\n        /* \"#utility.yul\":3965:3977   */\n      mload\n        /* \"#utility.yul\":3955:3977   */\n      swap1\n      pop\n        /* \"#utility.yul\":3885:3984   */\n      swap2\n      swap1\n      pop\n      jump\t// out\n        /* \"#utility.yul\":3990:4159   */\n    tag_59:\n        /* \"#utility.yul\":4074:4085   */\n      0x00\n        /* \"#utility.yul\":4108:4114   */\n      dup3\n        /* \"#utility.yul\":4103:4106   */\n      dup3\n        /* \"#utility.yul\":4096:4115   */\n      mstore\n        /* \"#utility.yul\":4148:4152   */\n      0x20\n        /* \"#utility.yul\":4143:4146   */\n      dup3\n        /* \"#utility.yul\":4139:4153   */\n      add\n        /* \"#utility.yul\":4124:4153   */\n      swap1\n      pop\n        /* \"#utility.yul\":3990:4159   */\n      swap3\n      swap2\n      pop\n      pop\n      jump\t// out\n        /* \"#utility.yul\":4165:4304   */\n    tag_60:\n        /* \"#utility.yul\":4254:4260   */\n      dup3\n        /* \"#utility.yul\":4249:4252   */\n      dup2\n        /* \"#utility.yul\":4244:4247   */\n      dup4\n        /* \"#utility.yul\":4238:4261   */\n      mcopy\n        /* \"#utility.yul\":4295:4296   */\n      0x00\n        /* \"#utility.yul\":4286:4292   */\n      dup4\n        /* \"#utility.yul\":4281:4284   */\n      dup4\n        /* \"#utility.yul\":4277:4293   */\n      add\n        /* \"#utility.yul\":4270:4297   */\n      mstore\n        /* \"#utility.yul\":4165:4304   */\n      pop\n      pop\n      pop\n      jump\t// out\n        /* \"#utility.yul\":4310:4687   */\n    tag_61:\n        /* \"#utility.yul\":4398:4401   */\n      0x00\n        /* \"#utility.yul\":4426:4465   */\n      tag_131\n        /* \"#utility.yul\":4459:4464   */\n      dup3\n        /* \"#utility.yul\":4426:4465   */\n      tag_58\n      jump\t// in\n    tag_131:\n        /* \"#utility.yul\":4481:4552   */\n      tag_132\n        /* \"#utility.yul\":4545:4551   */\n      dup2\n        /* \"#utility.yul\":4540:4543   */\n      dup6\n        /* \"#utility.yul\":4481:4552   */\n      tag_59\n      jump\t// in\n    tag_132:\n        /* \"#utility.yul\":4474:4552   */\n      swap4\n      pop\n        /* \"#utility.yul\":4561:4626   */\n      tag_133\n        /* \"#utility.yul\":4619:4625   */\n      dup2\n        /* \"#utility.yul\":4614:4617   */\n      dup6\n        /* \"#utility.yul\":4607:4611   */\n      0x20\n        /* \"#utility.yul\":4600:4605   */\n      dup7\n        /* \"#utility.yul\":4596:4612   */\n      add\n        /* \"#utility.yul\":4561:4626   */\n      tag_60\n      jump\t// in\n    tag_133:\n        /* \"#utility.yul\":4651:4680   */\n      tag_134\n        /* \"#utility.yul\":4673:4679   */\n      dup2\n        /* \"#utility.yul\":4651:4680   */\n      tag_46\n      jump\t// in\n    tag_134:\n        /* \"#utility.yul\":4646:4649   */\n      dup5\n        /* \"#utility.yul\":4642:4681   */\n      add\n        /* \"#utility.yul\":4635:4681   */\n      swap2\n      pop\n        /* \"#utility.yul\":4402:4687   */\n      pop\n        /* \"#utility.yul\":4310:4687   */\n      swap3\n      swap2\n      pop\n      pop\n      jump\t// out\n        /* \"#utility.yul\":4693:5116   */\n    tag_15:\n        /* \"#utility.yul\":4834:4838   */\n      0x00\n        /* \"#utility.yul\":4872:4874   */\n      0x40\n        /* \"#utility.yul\":4861:4870   */\n      dup3\n        /* \"#utility.yul\":4857:4875   */\n      add\n        /* \"#utility.yul\":4849:4875   */\n      swap1\n      pop\n        /* \"#utility.yul\":4885:4956   */\n      tag_136\n        /* \"#utility.yul\":4953:4954   */\n      0x00\n        /* \"#utility.yul\":4942:4951   */\n      dup4\n        /* \"#utility.yul\":4938:4955   */\n      add\n        /* \"#utility.yul\":4929:4935   */\n      dup6\n        /* \"#utility.yul\":4885:4956   */\n      tag_57\n      jump\t// in\n    tag_136:\n        /* \"#utility.yul\":5003:5012   */\n      dup2\n        /* \"#utility.yul\":4997:5001   */\n      dup2\n        /* \"#utility.yul\":4993:5013   */\n      sub\n        /* \"#utility.yul\":4988:4990   */\n      0x20\n        /* \"#utility.yul\":4977:4986   */\n      dup4\n        /* \"#utility.yul\":4973:4991   */\n      add\n        /* \"#utility.yul\":4966:5014   */\n      mstore\n        /* \"#utility.yul\":5031:5109   */\n      tag_137\n        /* \"#utility.yul\":5104:5108   */\n      dup2\n        /* \"#utility.yul\":5095:5101   */\n      dup5\n        /* \"#utility.yul\":5031:5109   */\n      tag_61\n      jump\t// in\n    tag_137:\n        /* \"#utility.yul\":5023:5109   */\n      swap1\n      pop\n        /* \"#utility.yul\":4693:5116   */\n      swap4\n      swap3\n      pop\n      pop\n      pop\n      jump\t// out\n        /* \"#utility.yul\":5122:5344   */\n    tag_19:\n        /* \"#utility.yul\":5215:5219   */\n      0x00\n        /* \"#utility.yul\":5253:5255   */\n      0x20\n        /* \"#utility.yul\":5242:5251   */\n      dup3\n        /* \"#utility.yul\":5238:5256   */\n      add\n        /* \"#utility.yul\":5230:5256   */\n      swap1\n      pop\n        /* \"#utility.yul\":5266:5337   */\n      tag_139\n        /* \"#utility.yul\":5334:5335   */\n      0x00\n        /* \"#utility.yul\":5323:5332   */\n      dup4\n        /* \"#utility.yul\":5319:5336   */\n      add\n        /* \"#utility.yul\":5310:5316   */\n      dup5\n        /* \"#utility.yul\":5266:5337   */\n      tag_57\n      jump\t// in\n    tag_139:\n        /* \"#utility.yul\":5122:5344   */\n      swap3\n      swap2\n      pop\n      pop\n      jump\t// out\n        /* \"#utility.yul\":5350:5530   */\n    tag_62:\n        /* \"#utility.yul\":5398:5475   */\n      0x4e487b7100000000000000000000000000000000000000000000000000000000\n        /* \"#utility.yul\":5395:5396   */\n      0x00\n        /* \"#utility.yul\":5388:5476   */\n      mstore\n        /* \"#utility.yul\":5495:5499   */\n      0x11\n        /* \"#utility.yul\":5492:5493   */\n      0x04\n        /* \"#utility.yul\":5485:5500   */\n      mstore\n        /* \"#utility.yul\":5519:5523   */\n      0x24\n        /* \"#utility.yul\":5516:5517   */\n      0x00\n        /* \"#utility.yul\":5509:5524   */\n      revert\n        /* \"#utility.yul\":5536:5727   */\n    tag_22:\n        /* \"#utility.yul\":5576:5579   */\n      0x00\n        /* \"#utility.yul\":5595:5615   */\n      tag_142\n        /* \"#utility.yul\":5613:5614   */\n      dup3\n        /* \"#utility.yul\":5595:5615   */\n      tag_54\n      jump\t// in\n    tag_142:\n        /* \"#utility.yul\":5590:5615   */\n      swap2\n      pop\n        /* \"#utility.yul\":5629:5649   */\n      tag_143\n        /* \"#utility.yul\":5647:5648   */\n      dup4\n        /* \"#utility.yul\":5629:5649   */\n      tag_54\n      jump\t// in\n    tag_143:\n        /* \"#utility.yul\":5624:5649   */\n      swap3\n      pop\n        /* \"#utility.yul\":5672:5673   */\n      dup3\n        /* \"#utility.yul\":5669:5670   */\n      dup3\n        /* \"#utility.yul\":5665:5674   */\n      add\n        /* \"#utility.yul\":5658:5674   */\n      swap1\n      pop\n        /* \"#utility.yul\":5693:5696   */\n      dup1\n        /* \"#utility.yul\":5690:5691   */\n      dup3\n        /* \"#utility.yul\":5687:5697   */\n      gt\n        /* \"#utility.yul\":5684:5720   */\n      iszero\n      tag_144\n      jumpi\n        /* \"#utility.yul\":5700:5718   */\n      tag_145\n      tag_62\n      jump\t// in\n    tag_145:\n        /* \"#utility.yul\":5684:5720   */\n    tag_144:\n        /* \"#utility.yul\":5536:5727   */\n      swap3\n      swap2\n      pop\n      pop\n      jump\t// out\n        /* \"#utility.yul\":5733:5913   */\n    tag_63:\n        /* \"#utility.yul\":5781:5858   */\n      0x4e487b7100000000000000000000000000000000000000000000000000000000\n        /* \"#utility.yul\":5778:5779   */\n      0x00\n        /* \"#utility.yul\":5771:5859   */\n      mstore\n        /* \"#utility.yul\":5878:5882   */\n      0x22\n        /* \"#utility.yul\":5875:5876   */\n      0x04\n        /* \"#utility.yul\":5868:5883   */\n      mstore\n        /* \"#utility.yul\":5902:5906   */\n      0x24\n        /* \"#utility.yul\":5899:5900   */\n      0x00\n        /* \"#utility.yul\":5892:5907   */\n      revert\n        /* \"#utility.yul\":5919:6239   */\n    tag_29:\n        /* \"#utility.yul\":5963:5969   */\n      0x00\n        /* \"#utility.yul\":6000:6001   */\n      0x02\n        /* \"#utility.yul\":5994:5998   */\n      dup3\n        /* \"#utility.yul\":5990:6002   */\n      div\n        /* \"#utility.yul\":5980:6002   */\n      swap1\n      pop\n        /* \"#utility.yul\":6047:6048   */\n      0x01\n        /* \"#utility.yul\":6041:6045   */\n      dup3\n        /* \"#utility.yul\":6037:6049   */\n      and\n        /* \"#utility.yul\":6068:6086   */\n      dup1\n        /* \"#utility.yul\":6058:6139   */\n      tag_148\n      jumpi\n        /* \"#utility.yul\":6124:6128   */\n      0x7f\n        /* \"#utility.yul\":6116:6122   */\n      dup3\n        /* \"#utility.yul\":6112:6129   */\n      and\n        /* \"#utility.yul\":6102:6129   */\n      swap2\n      pop\n        /* \"#utility.yul\":6058:6139   */\n    tag_148:\n        /* \"#utility.yul\":6186:6188   */\n      0x20\n        /* \"#utility.yul\":6178:6184   */\n      dup3\n        /* \"#utility.yul\":6175:6189   */\n      lt\n        /* \"#utility.yul\":6155:6173   */\n      dup2\n        /* \"#utility.yul\":6152:6190   */\n      sub\n        /* \"#utility.yul\":6149:6233   */\n      tag_149\n      jumpi\n        /* \"#utility.yul\":6205:6223   */\n      tag_150\n      tag_63\n      jump\t// in\n    tag_150:\n        /* \"#utility.yul\":6149:6233   */\n    tag_149:\n        /* \"#utility.yul\":5970:6239   */\n      pop\n        /* \"#utility.yul\":5919:6239   */\n      swap2\n      swap1\n      pop\n      jump\t// out\n        /* \"#utility.yul\":6245:6386   */\n    tag_64:\n        /* \"#utility.yul\":6294:6298   */\n      0x00\n        /* \"#utility.yul\":6317:6320   */\n      dup2\n        /* \"#utility.yul\":6309:6320   */\n      swap1\n      pop\n        /* \"#utility.yul\":6340:6343   */\n      dup2\n        /* \"#utility.yul\":6337:6338   */\n      0x00\n        /* \"#utility.yul\":6330:6344   */\n      mstore\n        /* \"#utility.yul\":6374:6378   */\n      0x20\n        /* \"#utility.yul\":6371:6372   */\n      0x00\n        /* \"#utility.yul\":6361:6379   */\n      keccak256\n        /* \"#utility.yul\":6353:6379   */\n      swap1\n      pop\n        /* \"#utility.yul\":6245:6386   */\n      swap2\n      swap1\n      pop\n      jump\t// out\n        /* \"#utility.yul\":6392:6485   */\n    tag_65:\n        /* \"#utility.yul\":6429:6435   */\n      0x00\n        /* \"#utility.yul\":6476:6478   */\n      0x20\n        /* \"#utility.yul\":6471:6473   */\n      0x1f\n        /* \"#utility.yul\":6464:6469   */\n      dup4\n        /* \"#utility.yul\":6460:6474   */\n      add\n        /* \"#utility.yul\":6456:6479   */\n      div\n        /* \"#utility.yul\":6446:6479   */\n      swap1\n      pop\n        /* \"#utility.yul\":6392:6485   */\n      swap2\n      swap1\n      pop\n      jump\t// out\n        /* \"#utility.yul\":6491:6598   */\n    tag_66:\n        /* \"#utility.yul\":6535:6543   */\n      0x00\n        /* \"#utility.yul\":6585:6590   */\n      dup3\n        /* \"#utility.yul\":6579:6583   */\n      dup3\n        /* \"#utility.yul\":6575:6591   */\n      shl\n        /* \"#utility.yul\":6554:6591   */\n      swap1\n      pop\n        /* \"#utility.yul\":6491:6598   */\n      swap3\n      swap2\n      pop\n      pop\n      jump\t// out\n        /* \"#utility.yul\":6604:6997   */\n    tag_67:\n        /* \"#utility.yul\":6673:6679   */\n      0x00\n        /* \"#utility.yul\":6723:6724   */\n      0x08\n        /* \"#utility.yul\":6711:6721   */\n      dup4\n        /* \"#utility.yul\":6707:6725   */\n      mul\n        /* \"#utility.yul\":6746:6843   */\n      tag_155\n        /* \"#utility.yul\":6776:6842   */\n      0xffffffffffffffffffffffffffffffffffffffffffffffffffffffffffffffff\n        /* \"#utility.yul\":6765:6774   */\n      dup3\n        /* \"#utility.yul\":6746:6843   */\n      tag_66\n      jump\t// in\n    tag_155:\n        /* \"#utility.yul\":6864:6903   */\n      tag_156\n        /* \"#utility.yul\":6894:6902   */\n      dup7\n        /* \"#utility.yul\":6883:6892   */\n      dup4\n        /* \"#utility.yul\":6864:6903   */\n      tag_66\n      jump\t// in\n    tag_156:\n        /* \"#utility.yul\":6852:6903   */\n      swap6\n      pop\n        /* \"#utility.yul\":6936:6940   */\n      dup1\n        /* \"#utility.yul\":6932:6941   */\n      not\n        /* \"#utility.yul\":6925:6930   */\n      dup5\n        /* \"#utility.yul\":6921:6942   */\n      and\n        /* \"#utility.yul\":6912:6942   */\n      swap4\n      pop\n        /* \"#utility.yul\":6985:6989   */\n      dup1\n        /* \"#utility.yul\":6975:6983   */\n      dup7\n        /* \"#utility.yul\":6971:6990   */\n      and\n        /* \"#utility.yul\":6964:6969   */\n      dup5\n        /* \"#utility.yul\":6961:6991   */\n      or\n        /* \"#utility.yul\":6951:6991   */\n      swap3\n      pop\n        /* \"#utility.yul\":6680:6997   */\n      pop\n      pop\n        /* \"#utility.yul\":6604:6997   */\n      swap4\n      swap3\n      pop\n      pop\n      pop\n      jump\t// out\n        /* \"#utility.yul\":7003:7063   */\n    tag_68:\n        /* \"#utility.yul\":7031:7034   */\n      0x00\n        /* \"#utility.yul\":7052:7057   */\n      dup2\n        /* \"#utility.yul\":7045:7057   */\n      swap1\n      pop\n        /* \"#utility.yul\":7003:7063   */\n      swap2\n      swap1\n      pop\n      jump\t// out\n        /* \"#utility.yul\":7069:7211   */\n    tag_69:\n        /* \"#utility.yul\":7119:7128   */\n      0x00\n        /* \"#utility.yul\":7152:7205   */\n      tag_159\n        /* \"#utility.yul\":7170:7204   */\n      tag_160\n        /* \"#utility.yul\":7179:7203   */\n      tag_161\n        /* \"#utility.yul\":7197:7202   */\n      dup5\n        /* \"#utility.yul\":7179:7203   */\n      tag_54\n      jump\t// in\n    tag_161:\n        /* \"#utility.yul\":7170:7204   */\n      tag_68\n      jump\t// in\n    tag_160:\n        /* \"#utility.yul\":7152:7205   */\n      tag_54\n      jump\t// in\n    tag_159:\n        /* \"#utility.yul\":7139:7205   */\n      swap1\n      pop\n        /* \"#utility.yul\":7069:7211   */\n      swap2\n      swap1\n      pop\n      jump\t// out\n        /* \"#utility.yul\":7217:7292   */\n    tag_70:\n        /* \"#utility.yul\":7260:7263   */\n      0x00\n        /* \"#utility.yul\":7281:7286   */\n      dup2\n        /* \"#utility.yul\":7274:7286   */\n      swap1\n      pop\n        /* \"#utility.yul\":7217:7292   */\n      swap2\n      swap1\n      pop\n      jump\t// out\n        /* \"#utility.yul\":7298:7567   */\n    tag_71:\n        /* \"#utility.yul\":7408:7447   */\n      tag_164\n        /* \"#utility.yul\":7439:7446   */\n      dup4\n        /* \"#utility.yul\":7408:7447   */\n      tag_69\n      jump\t// in\n    tag_164:\n        /* \"#utility.yul\":7469:7560   */\n      tag_165\n        /* \"#utility.yul\":7518:7559   */\n      tag_166\n        /* \"#utility.yul\":7542:7558   */\n      dup3\n        /* \"#utility.yul\":7518:7559   */\n      tag_70\n      jump\t// in\n    tag_166:\n        /* \"#utility.yul\":7510:7516   */\n      dup5\n        /* \"#utility.yul\":7503:7507   */\n      dup5\n        /* \"#utility.yul\":7497:7508   */\n      sload\n        /* \"#utility.yul\":7469:7560   */\n      tag_67\n      jump\t// in\n    tag_165:\n        /* \"#utility.yul\":7463:7467   */\n      dup3\n        /* \"#utility.yul\":7456:7561   */\n      sstore\n        /* \"#utility.yul\":7374:7567   */\n      pop\n        /* \"#utility.yul\":7298:7567   */\n      pop\n      pop\n      pop\n      jump\t// out\n        /* \"#utility.yul\":7573:7646   */\n    tag_72:\n        /* \"#utility.yul\":7618:7621   */\n      0x00\n        /* \"#utility.yul\":7573:7646   */\n      swap1\n      jump\t// out\n        /* \"#utility.yul\":7652:7841   */\n    tag_73:\n        /* \"#utility.yul\":7729:7761   */\n      tag_169\n      tag_72\n      jump\t// in\n    tag_169:\n        /* \"#utility.yul\":7770:7835   */\n      tag_170\n        /* \"#utility.yul\":7828:7834   */\n      dup2\n        /* \"#utility.yul\":7820:7826   */\n      dup5\n        /* \"#utility.yul\":7814:7818   */\n      dup5\n        /* \"#utility.yul\":7770:7835   */\n      tag_71\n      jump\t// in\n    tag_170:\n        /* \"#utility.yul\":7705:7841   */\n      pop\n        /* \"#utility.yul\":7652:7841   */\n      pop\n      pop\n      jump\t// out\n        /* \"#utility.yul\":7847:8033   */\n    tag_74:\n        /* \"#utility.yul\":7907:8027   */\n    tag_172:\n        /* \"#utility.yul\":7924:7927   */\n      dup2\n        /* \"#utility.yul\":7917:7922   */\n      dup2\n        /* \"#utility.yul\":7914:7928   */\n      lt\n        /* \"#utility.yul\":7907:8027   */\n      iszero\n      tag_174\n      jumpi\n        /* \"#utility.yul\":7978:8017   */\n      tag_175\n        /* \"#utility.yul\":8015:8016   */\n      0x00\n        /* \"#utility.yul\":8008:8013   */\n      dup3\n        /* \"#utility.yul\":7978:8017   */\n      tag_73\n      jump\t// in\n    tag_175:\n        /* \"#utility.yul\":7951:7952   */\n      0x01\n        /* \"#utility.yul\":7944:7949   */\n      dup2\n        /* \"#utility.yul\":7940:7953   */\n      add\n        /* \"#utility.yul\":7931:7953   */\n      swap1\n      pop\n        /* \"#utility.yul\":7907:8027   */\n      jump(tag_172)\n    tag_174:\n        /* \"#utility.yul\":7847:8033   */\n      pop\n      pop\n      jump\t// out\n        /* \"#utility.yul\":8039:8582   */\n    tag_75:\n        /* \"#utility.yul\":8140:8142   */\n      0x1f\n        /* \"#utility.yul\":8135:8138   */\n      dup3\n        /* \"#utility.yul\":8132:8143   */\n      gt\n        /* \"#utility.yul\":8129:8575   */\n      iszero\n      tag_177\n      jumpi\n        /* \"#utility.yul\":8174:8212   */\n      tag_178\n        /* \"#utility.yul\":8206:8211   */\n      dup2\n        /* \"#utility.yul\":8174:8212   */\n      tag_64\n      jump\t// in\n    tag_178:\n        /* \"#utility.yul\":8258:8287   */\n      tag_179\n        /* \"#utility.yul\":8276:8286   */\n      dup5\n        /* \"#utility.yul\":8258:8287   */\n      tag_65\n      jump\t// in\n    tag_179:\n        /* \"#utility.yul\":8248:8256   */\n      dup2\n        /* \"#utility.yul\":8244:8288   */\n      add\n        /* \"#utility.yul\":8441:8443   */\n      0x20\n        /* \"#utility.yul\":8429:8439   */\n      dup6\n        /* \"#utility.yul\":8426:8444   */\n      lt\n        /* \"#utility.yul\":8423:8472   */\n      iszero\n      tag_180\n      jumpi\n        /* \"#utility.yul\":8462:8470   */\n      dup2\n        /* \"#utility.yul\":8447:8470   */\n      swap1\n      pop\n        /* \"#utility.yul\":8423:8472   */\n    tag_180:\n        /* \"#utility.yul\":8485:8565   */\n      tag_181\n        /* \"#utility.yul\":8541:8563   */\n      tag_182\n        /* \"#utility.yul\":8559:8562   */\n      dup6\n        /* \"#utility.yul\":8541:8563   */\n      tag_65\n      jump\t// in\n    tag_182:\n        /* \"#utility.yul\":8531:8539   */\n      dup4\n        /* \"#utility.yul\":8527:8564   */\n      add\n        /* \"#utility.yul\":8514:8525   */\n      dup3\n        /* \"#utility.yul\":8485:8565   */\n      tag_74\n      jump\t// in\n    tag_181:\n        /* \"#utility.yul\":8144:8575   */\n      pop\n      pop\n        /* \"#utility.yul\":8129:8575   */\n    tag_177:\n        /* \"#utility.yul\":8039:8582   */\n      pop\n      pop\n      pop\n      jump\t// out\n        /* \"#utility.yul\":8588:8705   */\n    tag_76:\n        /* \"#utility.yul\":8642:8650   */\n      0x00\n        /* \"#utility.yul\":8692:8697   */\n      dup3\n        /* \"#utility.yul\":8686:8690   */\n      dup3\n        /* \"#utility.yul\":8682:8698   */\n      shr\n        /* \"#utility.yul\":8661:8698   */\n      swap1\n      pop\n        /* \"#utility.yul\":8588:8705   */\n      swap3\n      swap2\n      pop\n      pop\n      jump\t// out\n        /* \"#utility.yul\":8711:8880   */\n    tag_77:\n        /* \"#utility.yul\":8755:8761   */\n      0x00\n        /* \"#utility.yul\":8788:8839   */\n      tag_185\n        /* \"#utility.yul\":8836:8837   */\n      0x00\n        /* \"#utility.yul\":8832:8838   */\n      not\n        /* \"#utility.yul\":8824:8829   */\n      dup5\n        /* \"#utility.yul\":8821:8822   */\n      0x08\n        /* \"#utility.yul\":8817:8830   */\n      mul\n        /* \"#utility.yul\":8788:8839   */\n      tag_76\n      jump\t// in\n    tag_185:\n        /* \"#utility.yul\":8784:8840   */\n      not\n        /* \"#utility.yul\":8869:8873   */\n      dup1\n        /* \"#utility.yul\":8863:8867   */\n      dup4\n        /* \"#utility.yul\":8859:8874   */\n      and\n        /* \"#utility.yul\":8849:8874   */\n      swap2\n      pop\n        /* \"#utility.yul\":8762:8880   */\n      pop\n        /* \"#utility.yul\":8711:8880   */\n      swap3\n      swap2\n      pop\n      pop\n      jump\t// out\n        /* \"#utility.yul\":8885:9180   */\n    tag_78:\n        /* \"#utility.yul\":8961:8965   */\n      0x00\n        /* \"#utility.yul\":9107:9136   */\n      tag_187\n        /* \"#utility.yul\":9132:9135   */\n      dup4\n        /* \"#utility.yul\":9126:9130   */\n      dup4\n        /* \"#utility.yul\":9107:9136   */\n      tag_77\n      jump\t// in\n    tag_187:\n        /* \"#utility.yul\":9099:9136   */\n      swap2\n      pop\n        /* \"#utility.yul\":9169:9172   */\n      dup3\n        /* \"#utility.yul\":9166:9167   */\n      0x02\n        /* \"#utility.yul\":9162:9173   */\n      mul\n        /* \"#utility.yul\":9156:9160   */\n      dup3\n        /* \"#utility.yul\":9153:9174   */\n      or\n        /* \"#utility.yul\":9145:9174   */\n      swap1\n      pop\n        /* \"#utility.yul\":8885:9180   */\n      swap3\n      swap2\n      pop\n      pop\n      jump\t// out\n        /* \"#utility.yul\":9185:10580   */\n    tag_25:\n        /* \"#utility.yul\":9302:9339   */\n      tag_189\n        /* \"#utility.yul\":9335:9338   */\n      dup3\n        /* \"#utility.yul\":9302:9339   */\n      tag_58\n      jump\t// in\n    tag_189:\n        /* \"#utility.yul\":9404:9422   */\n      0xffffffffffffffff\n        /* \"#utility.yul\":9396:9402   */\n      dup2\n        /* \"#utility.yul\":9393:9423   */\n      gt\n        /* \"#utility.yul\":9390:9446   */\n      iszero\n      tag_190\n      jumpi\n        /* \"#utility.yul\":9426:9444   */\n      tag_191\n      tag_47\n      jump\t// in\n    tag_191:\n        /* \"#utility.yul\":9390:9446   */\n    tag_190:\n        /* \"#utility.yul\":9470:9508   */\n      tag_192\n        /* \"#utility.yul\":9502:9506   */\n      dup3\n        /* \"#utility.yul\":9496:9507   */\n      sload\n        /* \"#utility.yul\":9470:9508   */\n      tag_29\n      jump\t// in\n    tag_192:\n        /* \"#utility.yul\":9555:9622   */\n      tag_193\n        /* \"#utility.yul\":9615:9621   */\n      dup3\n        /* \"#utility.yul\":9607:9613   */\n      dup3\n        /* \"#utility.yul\":9601:9605   */\n      dup6\n        /* \"#utility.yul\":9555:9622   */\n      tag_75\n      jump\t// in\n    tag_193:\n        /* \"#utility.yul\":9649:9650   */\n      0x00\n        /* \"#utility.yul\":9673:9677   */\n      0x20\n        /* \"#utility.yul\":9660:9677   */\n      swap1\n      pop\n        /* \"#utility.yul\":9705:9707   */\n      0x1f\n        /* \"#utility.yul\":9697:9703   */\n      dup4\n        /* \"#utility.yul\":9694:9708   */\n      gt\n        /* \"#utility.yul\":9722:9723   */\n      0x01\n        /* \"#utility.yul\":9717:10335   */\n      dup2\n      eq\n      tag_195\n      jumpi\n        /* \"#utility.yul\":10379:10380   */\n      0x00\n        /* \"#utility.yul\":10396:10402   */\n      dup5\n        /* \"#utility.yul\":10393:10470   */\n      iszero\n      tag_196\n      jumpi\n        /* \"#utility.yul\":10445:10454   */\n      dup3\n        /* \"#utility.yul\":10440:10443   */\n      dup8\n        /* \"#utility.yul\":10436:10455   */\n      add\n        /* \"#utility.yul\":10430:10456   */\n      mload\n        /* \"#utility.yul\":10421:10456   */\n      swap1\n      pop\n        /* \"#utility.yul\":10393:10470   */\n    tag_196:\n        /* \"#utility.yul\":10496:10563   */\n      tag_197\n        /* \"#utility.yul\":10556:10562   */\n      dup6\n        /* \"#utility.yul\":10549:10554   */\n      dup3\n        /* \"#utility.yul\":10496:10563   */\n      tag_78\n      jump\t// in\n    tag_197:\n        /* \"#utility.yul\":10490:10494   */\n      dup7\n        /* \"#utility.yul\":10483:10564   */\n      sstore\n        /* \"#utility.yul\":10352:10574   */\n      pop\n        /* \"#utility.yul\":9687:10574   */\n      jump(tag_194)\n        /* \"#utility.yul\":9717:10335   */\n    tag_195:\n        /* \"#utility.yul\":9769:9773   */\n      0x1f\n        /* \"#utility.yul\":9765:9774   */\n      not\n        /* \"#utility.yul\":9757:9763   */\n      dup5\n        /* \"#utility.yul\":9753:9775   */\n      and\n        /* \"#utility.yul\":9803:9840   */\n      tag_198\n        /* \"#utility.yul\":9835:9839   */\n      dup7\n        /* \"#utility.yul\":9803:9840   */\n      tag_64\n      jump\t// in\n    tag_198:\n        /* \"#utility.yul\":9862:9863   */\n      0x00\n        /* \"#utility.yul\":9876:10084   */\n    tag_199:\n        /* \"#utility.yul\":9890:9897   */\n      dup3\n        /* \"#utility.yul\":9887:9888   */\n      dup2\n        /* \"#utility.yul\":9884:9898   */\n      lt\n        /* \"#utility.yul\":9876:10084   */\n      iszero\n      tag_201\n      jumpi\n        /* \"#utility.yul\":9969:9978   */\n      dup5\n        /* \"#utility.yul\":9964:9967   */\n      dup10\n        /* \"#utility.yul\":9960:9979   */\n      add\n        /* \"#utility.yul\":9954:9980   */\n      mload\n        /* \"#utility.yul\":9946:9952   */\n      dup3\n        /* \"#utility.yul\":9939:9981   */\n      sstore\n        /* \"#utility.yul\":10020:10021   */\n      0x01\n        /* \"#utility.yul\":10012:10018   */\n      dup3\n        /* \"#utility.yul\":10008:10022   */\n      add\n        /* \"#utility.yul\":9998:10022   */\n      swap2\n      pop\n        /* \"#utility.yul\":10067:10069   */\n      0x20\n        /* \"#utility.yul\":10056:10065   */\n      dup6\n        /* \"#utility.yul\":10052:10070   */\n      add\n        /* \"#utility.yul\":10039:10070   */\n      swap5\n      pop\n        /* \"#utility.yul\":9913:9917   */\n      0x20\n        /* \"#utility.yul\":9910:9911   */\n      dup2\n        /* \"#utility.yul\":9906:9918   */\n      add\n        /* \"#utility.yul\":9901:9918   */\n      swap1\n      pop\n        /* \"#utility.yul\":9876:10084   */\n      jump(tag_199)\n    tag_201:\n        /* \"#utility.yul\":10112:10118   */\n      dup7\n        /* \"#utility.yul\":10103:10110   */\n      dup4\n        /* \"#utility.yul\":10100:10119   */\n      lt\n        /* \"#utility.yul\":10097:10276   */\n      iszero\n      tag_202\n      jumpi\n        /* \"#utility.yul\":10170:10179   */\n      dup5\n        /* \"#utility.yul\":10165:10168   */\n      dup10\n        /* \"#utility.yul\":10161:10180   */\n      add\n        /* \"#utility.yul\":10155:10181   */\n      mload\n        /* \"#utility.yul\":10213:10261   */\n      tag_203\n        /* \"#utility.yul\":10255:10259   */\n      0x1f\n        /* \"#utility.yul\":10247:10253   */\n      dup10\n        /* \"#utility.yul\":10243:10260   */\n      and\n        /* \"#utility.yul\":10232:10241   */\n      dup3\n        /* \"#utility.yul\":10213:10261   */\n      tag_77\n      jump\t// in\n    tag_203:\n        /* \"#utility.yul\":10205:10211   */\n      dup4\n        /* \"#utility.yul\":10198:10262   */\n      sstore\n        /* \"#utility.yul\":10120:10276   */\n      pop\n        /* \"#utility.yul\":10097:10276   */\n    tag_202:\n        /* \"#utility.yul\":10322:10323   */\n      0x01\n        /* \"#utility.yul\":10318:10319   */\n      0x02\n        /* \"#utility.yul\":10310:10316   */\n      dup9\n        /* \"#utility.yul\":10306:10320   */\n      mul\n        /* \"#utility.yul\":10302:10324   */\n      add\n        /* \"#utility.yul\":10296:10300   */\n      dup9\n        /* \"#utility.yul\":10289:10325   */\n      sstore\n        /* \"#utility.yul\":9724:10335   */\n      pop\n      pop\n      pop\n        /* \"#utility.yul\":9687:10574   */\n    tag_194:\n      pop\n        /* \"#utility.yul\":9277:10580   */\n      pop\n      pop\n      pop\n        /* \"#utility.yul\":9185:10580   */\n      pop\n      pop\n      jump\t// out\n        /* \"#utility.yul\":10586:10780   */\n    tag_36:\n        /* \"#utility.yul\":10626:10630   */\n      0x00\n        /* \"#utility.yul\":10646:10666   */\n      tag_205\n        /* \"#utility.yul\":10664:10665   */\n      dup3\n        /* \"#utility.yul\":10646:10666   */\n      tag_54\n      jump\t// in\n    tag_205:\n        /* \"#utility.yul\":10641:10666   */\n      swap2\n      pop\n        /* \"#utility.yul\":10680:10700   */\n      tag_206\n        /* \"#utility.yul\":10698:10699   */\n      dup4\n        /* \"#utility.yul\":10680:10700   */\n      tag_54\n      jump\t// in\n    tag_206:\n        /* \"#utility.yul\":10675:10700   */\n      swap3\n      pop\n        /* \"#utility.yul\":10724:10725   */\n      dup3\n        /* \"#utility.yul\":10721:10722   */\n      dup3\n        /* \"#utility.yul\":10717:10726   */\n      sub\n        /* \"#utility.yul\":10709:10726   */\n      swap1\n      pop\n        /* \"#utility.yul\":10748:10749   */\n      dup2\n        /* \"#utility.yul\":10742:10746   */\n      dup2\n        /* \"#utility.yul\":10739:10750   */\n      gt\n        /* \"#utility.yul\":10736:10773   */\n      iszero\n      tag_207\n      jumpi\n        /* \"#utility.yul\":10753:10771   */\n      tag_208\n      tag_62\n      jump\t// in\n    tag_208:\n        /* \"#utility.yul\":10736:10773   */\n    tag_207:\n        /* \"#utility.yul\":10586:10780   */\n      swap3\n      swap2\n      pop\n      pop\n      jump\t// out\n        /* \"#utility.yul\":10786:10966   */\n    tag_39:\n        /* \"#utility.yul\":10834:10911   */\n      0x4e487b7100000000000000000000000000000000000000000000000000000000\n        /* \"#utility.yul\":10831:10832   */\n      0x00\n        /* \"#utility.yul\":10824:10912   */\n      mstore\n        /* \"#utility.yul\":10931:10935   */\n      0x32\n        /* \"#utility.yul\":10928:10929   */\n      0x04\n        /* \"#utility.yul\":10921:10936   */\n      mstore\n        /* \"#utility.yul\":10955:10959   */\n      0x24\n        /* \"#utility.yul\":10952:10953   */\n      0x00\n        /* \"#utility.yul\":10945:10960   */\n      revert\n\n    auxdata: 0xa2646970667358221220d3f2e4d8e11f865203bd2e5f232552ad7c11a5c61121b322c0e7963c79dba89164736f6c634300081a0033\n}\n",
				"bytecode": {
					"linkReferences": {},
					"object": "6080604052348015600e575f80fd5b506108748061001c5f395ff3fe608060405234801561000f575f80fd5b506004361061003e575f3560e01c8062369a5e146100425780635cf5ab561461005e578063933f29501461008f575b5f80fd5b61005c6004803603810190610057919061035a565b6100ad565b005b610078600480360381019061007391906103d4565b610121565b60405161008692919061046e565b60405180910390f35b6100976101d5565b6040516100a4919061049c565b60405180910390f35b5f60015f805490506100bf91906104e2565b90505f604051806040016040528083815260200184815250908060018154018082558091505060019003905f5260205f2090600202015f909190919091505f820151815f0155602082015181600101908161011a919061070f565b5050505050565b5f818154811061012f575f80fd5b905f5260205f2090600202015f91509050805f01549080600101805461015490610542565b80601f016020809104026020016040519081016040528092919081815260200182805461018090610542565b80156101cb5780601f106101a2576101008083540402835291602001916101cb565b820191905f5260205f20905b8154815290600101906020018083116101ae57829003601f168201915b5050505050905082565b5f8060015f805490506101e891906107de565b815481106101f9576101f8610811565b5b905f5260205f2090600202015f0154905090565b5f604051905090565b5f80fd5b5f80fd5b5f80fd5b5f80fd5b5f601f19601f8301169050919050565b7f4e487b71000000000000000000000000000000000000000000000000000000005f52604160045260245ffd5b61026c82610226565b810181811067ffffffffffffffff8211171561028b5761028a610236565b5b80604052505050565b5f61029d61020d565b90506102a98282610263565b919050565b5f67ffffffffffffffff8211156102c8576102c7610236565b5b6102d182610226565b9050602081019050919050565b828183375f83830152505050565b5f6102fe6102f9846102ae565b610294565b90508281526020810184848401111561031a57610319610222565b5b6103258482856102de565b509392505050565b5f82601f8301126103415761034061021e565b5b81356103518482602086016102ec565b91505092915050565b5f6020828403121561036f5761036e610216565b5b5f82013567ffffffffffffffff81111561038c5761038b61021a565b5b6103988482850161032d565b91505092915050565b5f819050919050565b6103b3816103a1565b81146103bd575f80fd5b50565b5f813590506103ce816103aa565b92915050565b5f602082840312156103e9576103e8610216565b5b5f6103f6848285016103c0565b91505092915050565b610408816103a1565b82525050565b5f81519050919050565b5f82825260208201905092915050565b8281835e5f83830152505050565b5f6104408261040e565b61044a8185610418565b935061045a818560208601610428565b61046381610226565b840191505092915050565b5f6040820190506104815f8301856103ff565b81810360208301526104938184610436565b90509392505050565b5f6020820190506104af5f8301846103ff565b92915050565b7f4e487b71000000000000000000000000000000000000000000000000000000005f52601160045260245ffd5b5f6104ec826103a1565b91506104f7836103a1565b925082820190508082111561050f5761050e6104b5565b5b92915050565b7f4e487b71000000000000000000000000000000000000000000000000000000005f52602260045260245ffd5b5f600282049050600182168061055957607f821691505b60208210810361056c5761056b610515565b5b50919050565b5f819050815f5260205f209050919050565b5f6020601f8301049050919050565b5f82821b905092915050565b5f600883026105ce7fffffffffffffffffffffffffffffffffffffffffffffffffffffffffffffffff82610593565b6105d88683610593565b95508019841693508086168417925050509392505050565b5f819050919050565b5f61061361060e610609846103a1565b6105f0565b6103a1565b9050919050565b5f819050919050565b61062c836105f9565b6106406106388261061a565b84845461059f565b825550505050565b5f90565b610654610648565b61065f818484610623565b505050565b5b81811015610682576106775f8261064c565b600181019050610665565b5050565b601f8211156106c75761069881610572565b6106a184610584565b810160208510156106b0578190505b6106c46106bc85610584565b830182610664565b50505b505050565b5f82821c905092915050565b5f6106e75f19846008026106cc565b1980831691505092915050565b5f6106ff83836106d8565b9150826002028217905092915050565b6107188261040e565b67ffffffffffffffff81111561073157610730610236565b5b61073b8254610542565b610746828285610686565b5f60209050601f831160018114610777575f8415610765578287015190505b61076f85826106f4565b8655506107d6565b601f19841661078586610572565b5f5b828110156107ac57848901518255600182019150602085019450602081019050610787565b868310156107c957848901516107c5601f8916826106d8565b8355505b6001600288020188555050505b505050505050565b5f6107e8826103a1565b91506107f3836103a1565b925082820390508181111561080b5761080a6104b5565b5b92915050565b7f4e487b71000000000000000000000000000000000000000000000000000000005f52603260045260245ffdfea2646970667358221220d3f2e4d8e11f865203bd2e5f232552ad7c11a5c61121b322c0e7963c79dba89164736f6c634300081a0033",
					"opcodes": "PUSH1 0x80 PUSH1 0x40 MSTORE CALLVALUE DUP1 ISZERO PUSH1 0xE JUMPI PUSH0 DUP1 REVERT JUMPDEST POP PUSH2 0x874 DUP1 PUSH2 0x1C PUSH0 CODECOPY PUSH0 RETURN INVALID PUSH1 0x80 PUSH1 0x40 MSTORE CALLVALUE DUP1 ISZERO PUSH2 0xF JUMPI PUSH0 DUP1 REVERT JUMPDEST POP PUSH1 0x4 CALLDATASIZE LT PUSH2 0x3E JUMPI PUSH0 CALLDATALOAD PUSH1 0xE0 SHR DUP1 PUSH3 0x369A5E EQ PUSH2 0x42 JUMPI DUP1 PUSH4 0x5CF5AB56 EQ PUSH2 0x5E JUMPI DUP1 PUSH4 0x933F2950 EQ PUSH2 0x8F JUMPI JUMPDEST PUSH0 DUP1 REVERT JUMPDEST PUSH2 0x5C PUSH1 0x4 DUP1 CALLDATASIZE SUB DUP2 ADD SWAP1 PUSH2 0x57 SWAP2 SWAP1 PUSH2 0x35A JUMP JUMPDEST PUSH2 0xAD JUMP JUMPDEST STOP JUMPDEST PUSH2 0x78 PUSH1 0x4 DUP1 CALLDATASIZE SUB DUP2 ADD SWAP1 PUSH2 0x73 SWAP2 SWAP1 PUSH2 0x3D4 JUMP JUMPDEST PUSH2 0x121 JUMP JUMPDEST PUSH1 0x40 MLOAD PUSH2 0x86 SWAP3 SWAP2 SWAP1 PUSH2 0x46E JUMP JUMPDEST PUSH1 0x40 MLOAD DUP1 SWAP2 SUB SWAP1 RETURN JUMPDEST PUSH2 0x97 PUSH2 0x1D5 JUMP JUMPDEST PUSH1 0x40 MLOAD PUSH2 0xA4 SWAP2 SWAP1 PUSH2 0x49C JUMP JUMPDEST PUSH1 0x40 MLOAD DUP1 SWAP2 SUB SWAP1 RETURN JUMPDEST PUSH0 PUSH1 0x1 PUSH0 DUP1 SLOAD SWAP1 POP PUSH2 0xBF SWAP2 SWAP1 PUSH2 0x4E2 JUMP JUMPDEST SWAP1 POP PUSH0 PUSH1 0x40 MLOAD DUP1 PUSH1 0x40 ADD PUSH1 0x40 MSTORE DUP1 DUP4 DUP2 MSTORE PUSH1 0x20 ADD DUP5 DUP2 MSTORE POP SWAP1 DUP1 PUSH1 0x1 DUP2 SLOAD ADD DUP1 DUP3 SSTORE DUP1 SWAP2 POP POP PUSH1 0x1 SWAP1 SUB SWAP1 PUSH0 MSTORE PUSH1 0x20 PUSH0 KECCAK256 SWAP1 PUSH1 0x2 MUL ADD PUSH0 SWAP1 SWAP2 SWAP1 SWAP2 SWAP1 SWAP2 POP PUSH0 DUP3 ADD MLOAD DUP2 PUSH0 ADD SSTORE PUSH1 0x20 DUP3 ADD MLOAD DUP2 PUSH1 0x1 ADD SWAP1 DUP2 PUSH2 0x11A SWAP2 SWAP1 PUSH2 0x70F JUMP JUMPDEST POP POP POP POP POP JUMP JUMPDEST PUSH0 DUP2 DUP2 SLOAD DUP2 LT PUSH2 0x12F JUMPI PUSH0 DUP1 REVERT JUMPDEST SWAP1 PUSH0 MSTORE PUSH1 0x20 PUSH0 KECCAK256 SWAP1 PUSH1 0x2 MUL ADD PUSH0 SWAP2 POP SWAP1 POP DUP1 PUSH0 ADD SLOAD SWAP1 DUP1 PUSH1 0x1 ADD DUP1 SLOAD PUSH2 0x154 SWAP1 PUSH2 0x542 JUMP JUMPDEST DUP1 PUSH1 0x1F ADD PUSH1 0x20 DUP1 SWAP2 DIV MUL PUSH1 0x20 ADD PUSH1 0x40 MLOAD SWAP1 DUP2 ADD PUSH1 0x40 MSTORE DUP1 SWAP3 SWAP2 SWAP1 DUP2 DUP2 MSTORE PUSH1 0x20 ADD DUP3 DUP1 SLOAD PUSH2 0x180 SWAP1 PUSH2 0x542 JUMP JUMPDEST DUP1 ISZERO PUSH2 0x1CB JUMPI DUP1 PUSH1 0x1F LT PUSH2 0x1A2 JUMPI PUSH2 0x100 DUP1 DUP4 SLOAD DIV MUL DUP4 MSTORE SWAP2 PUSH1 0x20 ADD SWAP2 PUSH2 0x1CB JUMP JUMPDEST DUP3 ADD SWAP2 SWAP1 PUSH0 MSTORE PUSH1 0x20 PUSH0 KECCAK256 SWAP1 JUMPDEST DUP2 SLOAD DUP2 MSTORE SWAP1 PUSH1 0x1 ADD SWAP1 PUSH1 0x20 ADD DUP1 DUP4 GT PUSH2 0x1AE JUMPI DUP3 SWAP1 SUB PUSH1 0x1F AND DUP3 ADD SWAP2 JUMPDEST POP POP POP POP POP SWAP1 POP DUP3 JUMP JUMPDEST PUSH0 DUP1 PUSH1 0x1 PUSH0 DUP1 SLOAD SWAP1 POP PUSH2 0x1E8 SWAP2 SWAP1 PUSH2 0x7DE JUMP JUMPDEST DUP2 SLOAD DUP2 LT PUSH2 0x1F9 JUMPI PUSH2 0x1F8 PUSH2 0x811 JUMP JUMPDEST JUMPDEST SWAP1 PUSH0 MSTORE PUSH1 0x20 PUSH0 KECCAK256 SWAP1 PUSH1 0x2 MUL ADD PUSH0 ADD SLOAD SWAP1 POP SWAP1 JUMP JUMPDEST PUSH0 PUSH1 0x40 MLOAD SWAP1 POP SWAP1 JUMP JUMPDEST PUSH0 DUP1 REVERT JUMPDEST PUSH0 DUP1 REVERT JUMPDEST PUSH0 DUP1 REVERT JUMPDEST PUSH0 DUP1 REVERT JUMPDEST PUSH0 PUSH1 0x1F NOT PUSH1 0x1F DUP4 ADD AND SWAP1 POP SWAP2 SWAP1 POP JUMP JUMPDEST PUSH32 0x4E487B7100000000000000000000000000000000000000000000000000000000 PUSH0 MSTORE PUSH1 0x41 PUSH1 0x4 MSTORE PUSH1 0x24 PUSH0 REVERT JUMPDEST PUSH2 0x26C DUP3 PUSH2 0x226 JUMP JUMPDEST DUP2 ADD DUP2 DUP2 LT PUSH8 0xFFFFFFFFFFFFFFFF DUP3 GT OR ISZERO PUSH2 0x28B JUMPI PUSH2 0x28A PUSH2 0x236 JUMP JUMPDEST JUMPDEST DUP1 PUSH1 0x40 MSTORE POP POP POP JUMP JUMPDEST PUSH0 PUSH2 0x29D PUSH2 0x20D JUMP JUMPDEST SWAP1 POP PUSH2 0x2A9 DUP3 DUP3 PUSH2 0x263 JUMP JUMPDEST SWAP2 SWAP1 POP JUMP JUMPDEST PUSH0 PUSH8 0xFFFFFFFFFFFFFFFF DUP3 GT ISZERO PUSH2 0x2C8 JUMPI PUSH2 0x2C7 PUSH2 0x236 JUMP JUMPDEST JUMPDEST PUSH2 0x2D1 DUP3 PUSH2 0x226 JUMP JUMPDEST SWAP1 POP PUSH1 0x20 DUP2 ADD SWAP1 POP SWAP2 SWAP1 POP JUMP JUMPDEST DUP3 DUP2 DUP4 CALLDATACOPY PUSH0 DUP4 DUP4 ADD MSTORE POP POP POP JUMP JUMPDEST PUSH0 PUSH2 0x2FE PUSH2 0x2F9 DUP5 PUSH2 0x2AE JUMP JUMPDEST PUSH2 0x294 JUMP JUMPDEST SWAP1 POP DUP3 DUP2 MSTORE PUSH1 0x20 DUP2 ADD DUP5 DUP5 DUP5 ADD GT ISZERO PUSH2 0x31A JUMPI PUSH2 0x319 PUSH2 0x222 JUMP JUMPDEST JUMPDEST PUSH2 0x325 DUP5 DUP3 DUP6 PUSH2 0x2DE JUMP JUMPDEST POP SWAP4 SWAP3 POP POP POP JUMP JUMPDEST PUSH0 DUP3 PUSH1 0x1F DUP4 ADD SLT PUSH2 0x341 JUMPI PUSH2 0x340 PUSH2 0x21E JUMP JUMPDEST JUMPDEST DUP2 CALLDATALOAD PUSH2 0x351 DUP5 DUP3 PUSH1 0x20 DUP7 ADD PUSH2 0x2EC JUMP JUMPDEST SWAP2 POP POP SWAP3 SWAP2 POP POP JUMP JUMPDEST PUSH0 PUSH1 0x20 DUP3 DUP5 SUB SLT ISZERO PUSH2 0x36F JUMPI PUSH2 0x36E PUSH2 0x216 JUMP JUMPDEST JUMPDEST PUSH0 DUP3 ADD CALLDATALOAD PUSH8 0xFFFFFFFFFFFFFFFF DUP2 GT ISZERO PUSH2 0x38C JUMPI PUSH2 0x38B PUSH2 0x21A JUMP JUMPDEST JUMPDEST PUSH2 0x398 DUP5 DUP3 DUP6 ADD PUSH2 0x32D JUMP JUMPDEST SWAP2 POP POP SWAP3 SWAP2 POP POP JUMP JUMPDEST PUSH0 DUP2 SWAP1 POP SWAP2 SWAP1 POP JUMP JUMPDEST PUSH2 0x3B3 DUP2 PUSH2 0x3A1 JUMP JUMPDEST DUP2 EQ PUSH2 0x3BD JUMPI PUSH0 DUP1 REVERT JUMPDEST POP JUMP JUMPDEST PUSH0 DUP2 CALLDATALOAD SWAP1 POP PUSH2 0x3CE DUP2 PUSH2 0x3AA JUMP JUMPDEST SWAP3 SWAP2 POP POP JUMP JUMPDEST PUSH0 PUSH1 0x20 DUP3 DUP5 SUB SLT ISZERO PUSH2 0x3E9 JUMPI PUSH2 0x3E8 PUSH2 0x216 JUMP JUMPDEST JUMPDEST PUSH0 PUSH2 0x3F6 DUP5 DUP3 DUP6 ADD PUSH2 0x3C0 JUMP JUMPDEST SWAP2 POP POP SWAP3 SWAP2 POP POP JUMP JUMPDEST PUSH2 0x408 DUP2 PUSH2 0x3A1 JUMP JUMPDEST DUP3 MSTORE POP POP JUMP JUMPDEST PUSH0 DUP2 MLOAD SWAP1 POP SWAP2 SWAP1 POP JUMP JUMPDEST PUSH0 DUP3 DUP3 MSTORE PUSH1 0x20 DUP3 ADD SWAP1 POP SWAP3 SWAP2 POP POP JUMP JUMPDEST DUP3 DUP2 DUP4 MCOPY PUSH0 DUP4 DUP4 ADD MSTORE POP POP POP JUMP JUMPDEST PUSH0 PUSH2 0x440 DUP3 PUSH2 0x40E JUMP JUMPDEST PUSH2 0x44A DUP2 DUP6 PUSH2 0x418 JUMP JUMPDEST SWAP4 POP PUSH2 0x45A DUP2 DUP6 PUSH1 0x20 DUP7 ADD PUSH2 0x428 JUMP JUMPDEST PUSH2 0x463 DUP2 PUSH2 0x226 JUMP JUMPDEST DUP5 ADD SWAP2 POP POP SWAP3 SWAP2 POP POP JUMP JUMPDEST PUSH0 PUSH1 0x40 DUP3 ADD SWAP1 POP PUSH2 0x481 PUSH0 DUP4 ADD DUP6 PUSH2 0x3FF JUMP JUMPDEST DUP2 DUP2 SUB PUSH1 0x20 DUP4 ADD MSTORE PUSH2 0x493 DUP2 DUP5 PUSH2 0x436 JUMP JUMPDEST SWAP1 POP SWAP4 SWAP3 POP POP POP JUMP JUMPDEST PUSH0 PUSH1 0x20 DUP3 ADD SWAP1 POP PUSH2 0x4AF PUSH0 DUP4 ADD DUP5 PUSH2 0x3FF JUMP JUMPDEST SWAP3 SWAP2 POP POP JUMP JUMPDEST PUSH32 0x4E487B7100000000000000000000000000000000000000000000000000000000 PUSH0 MSTORE PUSH1 0x11 PUSH1 0x4 MSTORE PUSH1 0x24 PUSH0 REVERT JUMPDEST PUSH0 PUSH2 0x4EC DUP3 PUSH2 0x3A1 JUMP JUMPDEST SWAP2 POP PUSH2 0x4F7 DUP4 PUSH2 0x3A1 JUMP JUMPDEST SWAP3 POP DUP3 DUP3 ADD SWAP1 POP DUP1 DUP3 GT ISZERO PUSH2 0x50F JUMPI PUSH2 0x50E PUSH2 0x4B5 JUMP JUMPDEST JUMPDEST SWAP3 SWAP2 POP POP JUMP JUMPDEST PUSH32 0x4E487B7100000000000000000000000000000000000000000000000000000000 PUSH0 MSTORE PUSH1 0x22 PUSH1 0x4 MSTORE PUSH1 0x24 PUSH0 REVERT JUMPDEST PUSH0 PUSH1 0x2 DUP3 DIV SWAP1 POP PUSH1 0x1 DUP3 AND DUP1 PUSH2 0x559 JUMPI PUSH1 0x7F DUP3 AND SWAP2 POP JUMPDEST PUSH1 0x20 DUP3 LT DUP2 SUB PUSH2 0x56C JUMPI PUSH2 0x56B PUSH2 0x515 JUMP JUMPDEST JUMPDEST POP SWAP2 SWAP1 POP JUMP JUMPDEST PUSH0 DUP2 SWAP1 POP DUP2 PUSH0 MSTORE PUSH1 0x20 PUSH0 KECCAK256 SWAP1 POP SWAP2 SWAP1 POP JUMP JUMPDEST PUSH0 PUSH1 0x20 PUSH1 0x1F DUP4 ADD DIV SWAP1 POP SWAP2 SWAP1 POP JUMP JUMPDEST PUSH0 DUP3 DUP3 SHL SWAP1 POP SWAP3 SWAP2 POP POP JUMP JUMPDEST PUSH0 PUSH1 0x8 DUP4 MUL PUSH2 0x5CE PUSH32 0xFFFFFFFFFFFFFFFFFFFFFFFFFFFFFFFFFFFFFFFFFFFFFFFFFFFFFFFFFFFFFFFF DUP3 PUSH2 0x593 JUMP JUMPDEST PUSH2 0x5D8 DUP7 DUP4 PUSH2 0x593 JUMP JUMPDEST SWAP6 POP DUP1 NOT DUP5 AND SWAP4 POP DUP1 DUP7 AND DUP5 OR SWAP3 POP POP POP SWAP4 SWAP3 POP POP POP JUMP JUMPDEST PUSH0 DUP2 SWAP1 POP SWAP2 SWAP1 POP JUMP JUMPDEST PUSH0 PUSH2 0x613 PUSH2 0x60E PUSH2 0x609 DUP5 PUSH2 0x3A1 JUMP JUMPDEST PUSH2 0x5F0 JUMP JUMPDEST PUSH2 0x3A1 JUMP JUMPDEST SWAP1 POP SWAP2 SWAP1 POP JUMP JUMPDEST PUSH0 DUP2 SWAP1 POP SWAP2 SWAP1 POP JUMP JUMPDEST PUSH2 0x62C DUP4 PUSH2 0x5F9 JUMP JUMPDEST PUSH2 0x640 PUSH2 0x638 DUP3 PUSH2 0x61A JUMP JUMPDEST DUP5 DUP5 SLOAD PUSH2 0x59F JUMP JUMPDEST DUP3 SSTORE POP POP POP POP JUMP JUMPDEST PUSH0 SWAP1 JUMP JUMPDEST PUSH2 0x654 PUSH2 0x648 JUMP JUMPDEST PUSH2 0x65F DUP2 DUP5 DUP5 PUSH2 0x623 JUMP JUMPDEST POP POP POP JUMP JUMPDEST JUMPDEST DUP2 DUP2 LT ISZERO PUSH2 0x682 JUMPI PUSH2 0x677 PUSH0 DUP3 PUSH2 0x64C JUMP JUMPDEST PUSH1 0x1 DUP2 ADD SWAP1 POP PUSH2 0x665 JUMP JUMPDEST POP POP JUMP JUMPDEST PUSH1 0x1F DUP3 GT ISZERO PUSH2 0x6C7 JUMPI PUSH2 0x698 DUP2 PUSH2 0x572 JUMP JUMPDEST PUSH2 0x6A1 DUP5 PUSH2 0x584 JUMP JUMPDEST DUP2 ADD PUSH1 0x20 DUP6 LT ISZERO PUSH2 0x6B0 JUMPI DUP2 SWAP1 POP JUMPDEST PUSH2 0x6C4 PUSH2 0x6BC DUP6 PUSH2 0x584 JUMP JUMPDEST DUP4 ADD DUP3 PUSH2 0x664 JUMP JUMPDEST POP POP JUMPDEST POP POP POP JUMP JUMPDEST PUSH0 DUP3 DUP3 SHR SWAP1 POP SWAP3 SWAP2 POP POP JUMP JUMPDEST PUSH0 PUSH2 0x6E7 PUSH0 NOT DUP5 PUSH1 0x8 MUL PUSH2 0x6CC JUMP JUMPDEST NOT DUP1 DUP4 AND SWAP2 POP POP SWAP3 SWAP2 POP POP JUMP JUMPDEST PUSH0 PUSH2 0x6FF DUP4 DUP4 PUSH2 0x6D8 JUMP JUMPDEST SWAP2 POP DUP3 PUSH1 0x2 MUL DUP3 OR SWAP1 POP SWAP3 SWAP2 POP POP JUMP JUMPDEST PUSH2 0x718 DUP3 PUSH2 0x40E JUMP JUMPDEST PUSH8 0xFFFFFFFFFFFFFFFF DUP2 GT ISZERO PUSH2 0x731 JUMPI PUSH2 0x730 PUSH2 0x236 JUMP JUMPDEST JUMPDEST PUSH2 0x73B DUP3 SLOAD PUSH2 0x542 JUMP JUMPDEST PUSH2 0x746 DUP3 DUP3 DUP6 PUSH2 0x686 JUMP JUMPDEST PUSH0 PUSH1 0x20 SWAP1 POP PUSH1 0x1F DUP4 GT PUSH1 0x1 DUP2 EQ PUSH2 0x777 JUMPI PUSH0 DUP5 ISZERO PUSH2 0x765 JUMPI DUP3 DUP8 ADD MLOAD SWAP1 POP JUMPDEST PUSH2 0x76F DUP6 DUP3 PUSH2 0x6F4 JUMP JUMPDEST DUP7 SSTORE POP PUSH2 0x7D6 JUMP JUMPDEST PUSH1 0x1F NOT DUP5 AND PUSH2 0x785 DUP7 PUSH2 0x572 JUMP JUMPDEST PUSH0 JUMPDEST DUP3 DUP2 LT ISZERO PUSH2 0x7AC JUMPI DUP5 DUP10 ADD MLOAD DUP3 SSTORE PUSH1 0x1 DUP3 ADD SWAP2 POP PUSH1 0x20 DUP6 ADD SWAP5 POP PUSH1 0x20 DUP2 ADD SWAP1 POP PUSH2 0x787 JUMP JUMPDEST DUP7 DUP4 LT ISZERO PUSH2 0x7C9 JUMPI DUP5 DUP10 ADD MLOAD PUSH2 0x7C5 PUSH1 0x1F DUP10 AND DUP3 PUSH2 0x6D8 JUMP JUMPDEST DUP4 SSTORE POP JUMPDEST PUSH1 0x1 PUSH1 0x2 DUP9 MUL ADD DUP9 SSTORE POP POP POP JUMPDEST POP POP POP POP POP POP JUMP JUMPDEST PUSH0 PUSH2 0x7E8 DUP3 PUSH2 0x3A1 JUMP JUMPDEST SWAP2 POP PUSH2 0x7F3 DUP4 PUSH2 0x3A1 JUMP JUMPDEST SWAP3 POP DUP3 DUP3 SUB SWAP1 POP DUP2 DUP2 GT ISZERO PUSH2 0x80B JUMPI PUSH2 0x80A PUSH2 0x4B5 JUMP JUMPDEST JUMPDEST SWAP3 SWAP2 POP POP JUMP JUMPDEST PUSH32 0x4E487B7100000000000000000000000000000000000000000000000000000000 PUSH0 MSTORE PUSH1 0x32 PUSH1 0x4 MSTORE PUSH1 0x24 PUSH0 REVERT INVALID LOG2 PUSH5 0x6970667358 0x22 SLT KECCAK256 0xD3 CALLCODE 0xE4 0xD8 0xE1 0x1F DUP7 MSTORE SUB 0xBD 0x2E PUSH0 0x23 0x25 MSTORE 0xAD PUSH29 0x11A5C61121B322C0E7963C79DBA89164736F6C634300081A0033000000 "
				},
				"gasEstimates": {
					"creation": {
						"codeDepositCost": "432800",
						"executionCost": "466",
						"totalCost": "433266"
					},
					"external": {
						"adicionarDado(string)": "infinite",
						"meusDados(uint256)": "infinite",
						"obterUltimoId()": "infinite"
					}
				},
				"methodIdentifiers": {
					"adicionarDado(string)": "00369a5e",
					"meusDados(uint256)": "5cf5ab56",
					"obterUltimoId()": "933f2950"
				}
			},
			"storageLayout": {
				"storage": [
					{
						"astId": 10,
						"contract": "contracts/hellios.sol:MinhaBlockchain",
						"label": "meusDados",
						"offset": 0,
						"slot": "0",
						"type": "t_array(t_struct(Dado)6_storage)dyn_storage"
					}
				],
				"types": {
					"t_array(t_struct(Dado)6_storage)dyn_storage": {
						"base": "t_struct(Dado)6_storage",
						"encoding": "dynamic_array",
						"label": "struct MinhaBlockchain.Dado[]",
						"numberOfBytes": "32"
					},
					"t_string_storage": {
						"encoding": "bytes",
						"label": "string",
						"numberOfBytes": "32"
					},
					"t_struct(Dado)6_storage": {
						"encoding": "inplace",
						"label": "struct MinhaBlockchain.Dado",
						"members": [
							{
								"astId": 3,
								"contract": "contracts/hellios.sol:MinhaBlockchain",
								"label": "id",
								"offset": 0,
								"slot": "0",
								"type": "t_uint256"
							},
							{
								"astId": 5,
								"contract": "contracts/hellios.sol:MinhaBlockchain",
								"label": "conteudo",
								"offset": 0,
								"slot": "1",
								"type": "t_string_storage"
							}
						],
						"numberOfBytes": "64"
					},
					"t_uint256": {
						"encoding": "inplace",
						"label": "uint256",
						"numberOfBytes": "32"
					}
				}
			},
			"userdoc": {
				"kind": "user",
				"methods": {},
				"version": 1
			}
		}
	}
}